{
  "_format": "hh-sol-artifact-1",
  "contractName": "CoinFlip",
  "sourceName": "contracts/CoinFlip.sol",
  "abi": [
    {
      "inputs": [],
      "stateMutability": "nonpayable",
      "type": "constructor"
    },
    {
      "anonymous": false,
      "inputs": [
        {
          "indexed": true,
          "internalType": "address",
          "name": "player",
          "type": "address"
        },
        {
          "indexed": false,
          "internalType": "uint256",
          "name": "betAmount",
          "type": "uint256"
        },
        {
          "indexed": false,
          "internalType": "bool",
          "name": "won",
          "type": "bool"
        }
      ],
      "name": "CoinFlipped",
      "type": "event"
    },
    {
      "inputs": [
        {
          "internalType": "enum CoinFlip.Choice",
          "name": "_choice",
          "type": "uint8"
        }
      ],
      "name": "flipCoin",
      "outputs": [],
      "stateMutability": "payable",
      "type": "function"
    },
    {
      "inputs": [],
      "name": "getMyTransactionHistory",
      "outputs": [
        {
          "components": [
            {
              "internalType": "uint256",
              "name": "betAmount",
              "type": "uint256"
            },
            {
              "internalType": "bool",
              "name": "won",
              "type": "bool"
            },
            {
              "internalType": "uint256",
              "name": "timestamp",
              "type": "uint256"
            }
          ],
          "internalType": "struct CoinFlip.Transaction[]",
          "name": "",
          "type": "tuple[]"
        }
      ],
      "stateMutability": "view",
      "type": "function"
    },
    {
      "inputs": [],
      "name": "owner",
      "outputs": [
        {
          "internalType": "address",
          "name": "",
          "type": "address"
        }
      ],
      "stateMutability": "view",
      "type": "function"
    },
    {
      "inputs": [],
      "name": "withdrawAll",
      "outputs": [],
      "stateMutability": "nonpayable",
      "type": "function"
    },
    {
      "stateMutability": "payable",
      "type": "receive"
    }
  ],
  "bytecode": "0x608060405234801561001057600080fd5b50336000806101000a81548173ffffffffffffffffffffffffffffffffffffffff021916908373ffffffffffffffffffffffffffffffffffffffff160217905550610ab0806100606000396000f3fe6080604052600436106100435760003560e01c806334a505f41461004f5780636afa82ea1461007a578063853828b6146100965780638da5cb5b146100ad5761004a565b3661004a57005b600080fd5b34801561005b57600080fd5b506100646100d8565b6040516100719190610663565b60405180910390f35b610094600480360381019061008f91906106af565b6101a3565b005b3480156100a257600080fd5b506100ab610423565b005b3480156100b957600080fd5b506100c261051a565b6040516100cf919061071d565b60405180910390f35b6060600160003373ffffffffffffffffffffffffffffffffffffffff1673ffffffffffffffffffffffffffffffffffffffff168152602001908152602001600020805480602002602001604051908101604052809291908181526020016000905b8282101561019a5783829060005260206000209060030201604051806060016040529081600082015481526020016001820160009054906101000a900460ff1615151515815260200160028201548152505081526020019060010190610139565b50505050905090565b600034116101e6576040517f08c379a00000000000000000000000000000000000000000000000000000000081526004016101dd906107bb565b60405180910390fd5b600080600244426101f7919061080a565b610201919061086d565b14905060008060018111156102195761021861089e565b5b83600181111561022c5761022b61089e565b5b1480156102365750815b8061026e575060018081111561024f5761024e61089e565b5b8360018111156102625761026161089e565b5b14801561026d575081155b5b9050801561031357600060023461028591906108cd565b9050804710156102ca576040517f08c379a00000000000000000000000000000000000000000000000000000000081526004016102c190610981565b60405180910390fd5b3373ffffffffffffffffffffffffffffffffffffffff166108fc829081150290604051600060405180830381858888f19350505050158015610310573d6000803e3d6000fd5b50505b600160003373ffffffffffffffffffffffffffffffffffffffff1673ffffffffffffffffffffffffffffffffffffffff168152602001908152602001600020604051806060016040528034815260200183151581526020014281525090806001815401808255809150506001900390600052602060002090600302016000909190919091506000820151816000015560208201518160010160006101000a81548160ff0219169083151502179055506040820151816002015550503373ffffffffffffffffffffffffffffffffffffffff167fdcdd9f1890f19af7893281fcb1f00383a13c4c9b2148d96d84c02fe4599a8dd234836040516104169291906109bf565b60405180910390a2505050565b60008054906101000a900473ffffffffffffffffffffffffffffffffffffffff1673ffffffffffffffffffffffffffffffffffffffff163373ffffffffffffffffffffffffffffffffffffffff16146104b1576040517f08c379a00000000000000000000000000000000000000000000000000000000081526004016104a890610a5a565b60405180910390fd5b60008054906101000a900473ffffffffffffffffffffffffffffffffffffffff1673ffffffffffffffffffffffffffffffffffffffff166108fc479081150290604051600060405180830381858888f19350505050158015610517573d6000803e3d6000fd5b50565b60008054906101000a900473ffffffffffffffffffffffffffffffffffffffff1681565b600081519050919050565b600082825260208201905092915050565b6000819050602082019050919050565b6000819050919050565b61057d8161056a565b82525050565b60008115159050919050565b61059881610583565b82525050565b6060820160008201516105b46000850182610574565b5060208201516105c7602085018261058f565b5060408201516105da6040850182610574565b50505050565b60006105ec838361059e565b60608301905092915050565b6000602082019050919050565b60006106108261053e565b61061a8185610549565b93506106258361055a565b8060005b8381101561065657815161063d88826105e0565b9750610648836105f8565b925050600181019050610629565b5085935050505092915050565b6000602082019050818103600083015261067d8184610605565b905092915050565b600080fd5b6002811061069757600080fd5b50565b6000813590506106a98161068a565b92915050565b6000602082840312156106c5576106c4610685565b5b60006106d38482850161069a565b91505092915050565b600073ffffffffffffffffffffffffffffffffffffffff82169050919050565b6000610707826106dc565b9050919050565b610717816106fc565b82525050565b6000602082019050610732600083018461070e565b92915050565b600082825260208201905092915050565b7f42657420616d6f756e74206d7573742062652067726561746572207468616e2060008201527f3000000000000000000000000000000000000000000000000000000000000000602082015250565b60006107a5602183610738565b91506107b082610749565b604082019050919050565b600060208201905081810360008301526107d481610798565b9050919050565b7f4e487b7100000000000000000000000000000000000000000000000000000000600052601160045260246000fd5b60006108158261056a565b91506108208361056a565b9250828201905080821115610838576108376107db565b5b92915050565b7f4e487b7100000000000000000000000000000000000000000000000000000000600052601260045260246000fd5b60006108788261056a565b91506108838361056a565b9250826108935761089261083e565b5b828206905092915050565b7f4e487b7100000000000000000000000000000000000000000000000000000000600052602160045260246000fd5b60006108d88261056a565b91506108e38361056a565b92508282026108f18161056a565b91508282048414831517610908576109076107db565b5b5092915050565b7f436f6e747261637420646f6573206e6f74206861766520656e6f75676820626160008201527f6c616e636520746f20706179206f75742077696e6e696e677300000000000000602082015250565b600061096b603983610738565b91506109768261090f565b604082019050919050565b6000602082019050818103600083015261099a8161095e565b9050919050565b6109aa8161056a565b82525050565b6109b981610583565b82525050565b60006040820190506109d460008301856109a1565b6109e160208301846109b0565b9392505050565b7f4f6e6c7920746865206f776e65722063616e2077697468647261772066756e6460008201527f7300000000000000000000000000000000000000000000000000000000000000602082015250565b6000610a44602183610738565b9150610a4f826109e8565b604082019050919050565b60006020820190508181036000830152610a7381610a37565b905091905056fea264697066735822122084e857873f0e41f60992d2bb08ab9574000cb18cec2f260073d438f1cd5c200264736f6c63430008120033",
  "linkReferences": {},
  "deployedLinkReferences": {}
}